:1000000042C076C05BC05AC059C058C057C056C025
:1000100055C054C053C052C051C050C04FC04EC054
:100020004DC04CC04BC04AC049C048C047C046C084
:1000300045C044C0040309041C037700770077001F
:100040002E00660069007300630068006C002E00DB
:10005000640065000E035500530042006100730008
:10006000700012011001FF000008C016DC05060137
:1000700001020001090212000101008019090400B7
:1000800000000000000011241FBECFEFD4E0DEBF4F
:10009000CDBF11E0A0E0B1E0EEE4F2E102C00590D6
:1000A0000D92A830B107D9F711E0A8E0B1E001C086
:1000B0001D92A235B107E1F7B3D8C7C8A1CFA82FC9
:1000C000B92F80E090E041E050EA609530E009C04F
:1000D0002D9182279795879510F084279527305E7C
:1000E000C8F36F5FA8F30895EADF8D939D93089599
:1000F000CF93CFB7CF93C395189BE9F7189B09C04F
:10010000189B07C0189B05C0189B03C0189B01C013
:10011000A1C0DF93C0912C01DD27CD5CDE4F189B81
:1001200002C0DF91EBCF2F930F931F9303B12FEFFB
:1001300000FB20F94F933F9313B14FEF012700FBD2
:1001400021F93BE031C04E7F012F13B1216028C05F
:10015000102F4D7F2260000003B129C04B7F246027
:10016000012F000013B12BC013B1477F28602AC0B4
:100170004F7E03B120612CC04F7D13B120622FC090
:100180004F7B03B1206432C0422703B149934FEF44
:100190000000102710FB20F913B11370C9F1297F5B
:1001A00091F2012700FB21F903B1237F89F231503D
:1001B00058F1102710FB22F913B1277E79F201279D
:1001C00000FB23F92F7C81F203B1102710FB24F9E7
:1001D0002F7971F200C013B1012700FB25F92F73AD
:1001E00059F200C003B1102710FB26F9223040F26B
:1001F00000C013B1012700FB27F9243028F64F7700
:10020000206813B10000F9CF11E01CBB002717C014
:100210003B503195C31BD04011E01CBB0881033C0F
:10022000E9F00B34D9F020912A011981110F121332
:10023000EDCF093641F10D3211F0013E39F700934F
:1002400031013F914F911F910F912F91DF91CCB3CD
:10025000C0FD51CFCF91CFBFCF91189520913101E3
:10026000222379F310912F01112311F5343012F16B
:1002700030932F0120932B0110912C013BE0311B77
:1002800030932C0117C000912F0101308CF40AE546
:100290003091000134FD10C000930001CFE1D1E0A6
:1002A0000FC02795A8F45150A9F4220F0000F9CFF0
:1002B0004AE503C042ED01C0432FC4E1D0E032E083
:1002C00014B11360289A14B905B120E413E05F93C8
:1002D000012756E005B9279520F4515021F4220F4B
:1002E000F9CF012756E000003B5A05B9D0F2279517
:1002F00028F4515029F4220F0000F9CF012756E0CD
:10030000279505B920F4515021F4220FF9CF012788
:1003100056E02991332305B921F60C7F1091300165
:10032000110FC651D04005B911F010932A0111E008
:100330001CBB016014B11C7F402F4C7F5F9100C03B
:1003400000C005B914B945B97CCF259A23982B9ADA
:1003500050E217D05A95E9F70895AC0188E605D028
:10036000842F03D089E601D0852F0FD028E030E01C
:10037000382780FB869506D02A95D1F730FB02D02E
:1003800000D0689423982B9A16F02B98239AE0912A
:100390005001F09151013197F0F72D9AE3B1E3FB51
:1003A000E0915001F09151013197F0F72D980895A7
:1003B00020ECE7DF46F42A95E1F780E02AE1E5DF6B
:1003C0002A95E9F7DECF28E030E0DBDF869587F974
:1003D00038272A95D1F7D5DF27F9322772F3D1DFF5
:1003E000D0CFDB01742FB9DF84E2BFDFE1DF8D9373
:1003F0007A95D1F70895DB01742FAFDF83EFB5DF76
:100400008DE1B3DF84E6B1DF8D91AFDF82E7ADDF51
:10041000CFDF8078D9F77A9589F708951F93CF9326
:10042000DF9360912F01635067FD13C080912C0111
:10043000CCE0D0E0C81BD109CD5CDE4F80912B0110
:100440008D3209F46EC08091080187FD91C0109231
:100450002F018091000184FF46C0609101016F3F30
:1004600009F441C0693050F16850609301018091F6
:100470001F0198E8892780931F0168E08091080197
:1004800087FD94C020912D0130912E0186FF7AC006
:10049000F901862FA0E2B1E094919D9331968150AD
:1004A000D9F72F5F3F4F862F8150280F311D309392
:1004B0002E0120932D01162F1C5F0BC010920101FD
:1004C00080911F0198E8892780931F016623B1F668
:1004D00014E080E291E008DE1C3019F08FEF809389
:1004E00001011093000194E183B1837099F491505C
:1004F000D9F71092300110922A0111E08091090180
:10050000811721F0112359F010930901DF91CF9148
:100510001F91089511E0992389F310E0EFCF7CD665
:10052000F3CF683009F093CF83EC80931F018AE505
:1005300080930001109208018881807661F59A818C
:100540001092280189818823E9F51092290128E277
:1005500031E082E030932E0120932D019F81992379
:1005600021F49E81981708F4892F809301016FCFA1
:10057000CE0183D58F3FA1F1882309F468CF109273
:10058000010165CFD901862FE0E2F1E09D919193C1
:100590008150E1F786CFCE011BD38F3FF9F69881CA
:1005A00097FD22C090E890930801DFCF80E291E0B0
:1005B000EDD4682F893008F454C08FEF8093010187
:1005C0001EE18FCF853041F1863081F0883059F1BE
:1005D000893069F18A3089F128E231E080E0BACFD0
:1005E0008EE18093000133CF8E81DCCF8B8181300F
:1005F00081F1823031F1833029F080E090E49093F2
:100600000801ACCF992381F584E390E090932E010B
:1006100080932D0184E0F2CF90933001FFD528E242
:1006200031E080E097CF22E331E081E093CF9093F7
:10063000320128E231E080E08DCF28E231E081E034
:1006400089CF84E790E090932E0180932D0182E181
:10065000D5CF82E690E090932E0180932D0182E128
:10066000CDCF182F1C5F35CF913051F0923029F645
:1006700084E590E090932E0180932D018EE0BECF13
:1006800088E390E090932E0180932D018CE1B6CF0A
:10069000E9E6F0E0808182608083E89A0895582F2F
:1006A0002D9848E080E020914E0157FD15C02B9811
:1006B00036B596B5931B9217E0F32D9A880F1C99C7
:1006C0008F5F36B596B5931B9217E0F32D98415086
:1006D00029F0550F57FFEBCF2B9AEACF08958EBD27
:1006E0000DB407FEFDCF8EB5089521E1969587954F
:1006F000779567952A95D1F720914D012617D9F066
:1007000060934D01E0914A01F0914B018DE4099510
:10071000E0914A01F0914B0180E00995E0914A0196
:10072000F0914B0180914D010995E0914A01F091C2
:100730004B0180E009950895882361F18830C8F065
:100740002FE633E030934B0120934A011092490188
:1007500091E090934E018930C9F18A30E0F08B30FE
:1007600021F08C30D1F49093490181E580934C01C4
:1007700008952FE433E030934B0120934A018430F5
:1007800089F1853088F4823049F18330B9F080EC0A
:1007900080934E0108958830A9F082E580934C0142
:1007A00081E0809349010895863049F0863090F0C9
:1007B000873069F783E080934E01089580E380934A
:1007C0004E01089583E580934C01089582E580935E
:1007D0004C0108958CE080934E01089580E680934B
:1007E0004E01089588E180934E01089584B18C6292
:1007F00084B92A982D988AE5BDD18FEF80934D0159
:100800000895F89484B1837D84B985B1837D85B9D9
:1008100078941CBC0895F89484B1877D84B985B11F
:10082000837D85B978941CBC2A9A81E0A3D12A984B
:100830008AE5A0D1F89484B1886284B97894089547
:100840000F931F93E0914A01F0914B0183E0EF3643
:10085000F80709F446C010E28CEA0995E0914A01D4
:10086000F0914B0183E50995E0914A01F0914B012C
:1008700080E00995082FE0914A01F0914B0180E05A
:100880000995033551F11CBC26B590914E0186B5F2
:10089000821B8917E0F32D9A26B586B5821B89172E
:1008A000E0F32D9826B586B5821B8917E0F3E09119
:1008B0004A01F0914B0183E0EF36F80739F011500F
:1008C00059F61CBC81E01F910F91089580914C0155
:1008D0008CBD809149018DBDF2CF80E01F910F91B9
:1008E000089580914C018CBD809149018DBDB3CF9D
:1008F000EF92FF920F931F937B018C01F6DE8E2DFA
:100900008170880F880F880FE0914A01F0914B01A8
:1009100080620995D801C70149E0B695A7959795DA
:1009200087954A95D1F7E0914A01F0914B010995DD
:10093000D801C701B695A79597958795E0914A018B
:10094000F0914B010995E0914A01F0914B0180E053
:1009500009951F910F91FF90EF900895CF92DF922C
:10096000EF92FF920F931F93DF93CF930F92CDB728
:10097000DEB77B018C01D42E2983B7DE8E2D8170EA
:10098000880F880F880FE0914A01F0914B01806435
:100990000995D801C701F9E0B695A7959795879570
:1009A000FA95D1F7E0914A01F0914B010995C80100
:1009B000B7019695879577956795E0914A01F091F3
:1009C0004B01862F0995E0914A01F0914B018D2D45
:1009D000099529812223A9F08D2D8F37E9F0C6B41E
:1009E0005EE1D52EC801B70183DF8F3751F486B59C
:1009F0008C198D3310F0C6B4DA94DD2099F781E0BC
:100A000001C080E00F90CF91DF911F910F91FF9077
:100A1000EF90DF90CF9008958FE0ACD080E0F2CFE0
:100A2000CF92DF92EF92FF920F931F93DF93CF93BA
:100A30000F92CDB7DEB77B018C01498356DEE09182
:100A40004A01F0914B018CE40995D801C70139E0C6
:100A5000B695A795979587953A95D1F7E0914A0174
:100A6000F0914B010995D801C701B695A7959795C7
:100A70008795E0914A01F0914B010995E0914A0177
:100A8000F0914B0180E0099549814F3FE9F0C6B4F0
:100A9000AEE1DA2EC801B7012BDF8F3F99F486B59E
:100AA0008C198D3310F0C6B4DA94DD2099F781E00B
:100AB0000F90CF91DF911F910F91FF90EF90DF90FA
:100AC000CF90089580E0F4CF8FE054D080E0F0CF55
:100AD0001F93DF93CF930F92CDB7DEB7182FE0911E
:100AE0004A01F0914B0180EA99830995E0914A010E
:100AF000F0914B019981892F0995E0914A01F0917C
:100B00004B01812F0995E0914A01F0914B0180E062
:100B100009950F90CF91DF911F9108951F93DF9357
:100B2000CF9300D0CDB7DEB7182FE0914A01F091F6
:100B30004B0180EC6A8399830995E0914A01F09119
:100B40004B019981892F0995E0914A01F0914B0160
:100B5000812F0995E0914A01F0914B016A81862F1E
:100B600009958EE107D080E00F900F90CF91DF9133
:100B70001F910895882349F030E026B596B5921B61
:100B80009C33E0F33F5F3817C0F308950F931F9332
:100B9000CF93DF93082FC2E0D1E004C081E0C830DA
:100BA000D80771F01991812FC7DD35DE49DE882322
:100BB000A9F731DE45DE882389F72DDE012F02C03B
:100BC000802FBADD802FDF91CF911F910F91089573
:100BD000CF93DF93EC0189818130A9F1823009F450
:100BE000C1C0833009F452C0843009F496C0873004
:100BF00009F46EC0853009F424C1863009F4E3C0DD
:100C0000883009F4B5C0893009F428C18A3009F464
:100C100036C1843109F41AC18B3009F484C18C3097
:100C200009F496C18D3009F4A8C18E3009F4AAC127
:100C30008F3009F42BC1803109F449C18F3709F491
:100C400067C180E016C0329B1DC08091150174DD24
:100C5000109216014198CADD80911501882321F474
:100C600084E094DF8093150110921701809318019E
:100C700082E027E131E030932E0120932D01DF91B6
:100C8000CF91089584E080931501E1CFE0914A016E
:100C9000F0914B018A81099580931701E0914A01F7
:100CA000F0914B018B81099580931801E0914A01E5
:100CB000F0914B018C81099580931901E0914A01D3
:100CC000F0914B018D81099580931A0184E0D1CF79
:100CD00080911601882391F43B8120E08A8190E085
:100CE000822B932BAA2797FDA095BA2F80930B01F7
:100CF00090930C01A0930D01B0930E013F8120E071
:100D00008E8190E0822B932B9093100180930F01A2
:100D100083E080930A018FEFACCF80911601882386
:100D200091F43B8120E08A8190E0822B932BAA27CB
:100D300097FDA095BA2F80930B0190930C01A0937F
:100D40000D01B0930E013F8120E08E8190E0822B57
:100D5000932B9093100180930F0182E080930A01FE
:100D60008FEF87CF4EDD419A1092150180E081CF41
:100D700080911601882391F43B8120E08A8190E0E4
:100D8000822B932BAA2797FDA095BA2F80930B0156
:100D900090930C01A0930D01B0930E0110921201DB
:100DA00010921101109214013F8120E08E8190E099
:100DB000822B932B9093100180930F0184E08093FA
:100DC0000A018FEF56CF80911601882391F43B8161
:100DD00020E08A8190E0822B932BAA2797FDA09593
:100DE000BA2F80930B0190930C01A0930D01B09347
:100DF0000E013C818D81282F2F702093140190E0EB
:100E0000807F907082959295907F9827807F982719
:100E1000830F911D909312018093110120FF02C056
:100E2000809313013F8120E08E8190E0822B932BF1
:100E30009093100180930F0181E080930A018FEF5E
:100E400018CFFEDC8093170181E013CF10921701B9
:100E5000809115018093180182E00BCF81E080938F
:100E600016018A819B81AC81BD8180930B01909397
:100E70000C01A0930D01B0930E0180E0FACE8A819F
:100E8000809315011092170181E0F3CE3B8120E0A1
:100E90008A8190E0822B932BAA2797FDA095BA2FE9
:100EA00080930B0190930C01A0930D01B0930E0160
:100EB0003F8120E08E8190E0822B932B9093100154
:100EC00080930F0185E080930A018FEFD2CE3B81A2
:100ED00020E08A8190E0822B932BAA2797FDA09592
:100EE000BA2F80930B0190930C01A0930D01B09346
:100EF0000E013F8120E08E8190E0822B932B909316
:100F0000100180930F0186E080930A018FEFB1CE2C
:100F100081E080931701109218011092190110922C
:100F20001A0184E0A6CE3B8120E08A8190E0822BEA
:100F3000932B90935101809350012A9A229A83E037
:100F400019DE2A98419880E115DEFFD980E091CE24
:100F500080EC0BDA80E009DA8AE00CDE2A9A85E080
:100F600009DE2A9885E006DE84B1837D84B985B1E7
:100F7000837D85B9419A80E07CCE1ADA809317018F
:100F800081E077CE8A81F1D980E073CEEF92FF9233
:100F90000F931F93CF93DF93082F292F162F309194
:100FA0000A01832F8250823060F0353009F448C046
:100FB0001FEF812FDF91CF911F910F91FF90EF9045
:100FC0000895662399F160910B0170910C01809155
:100FD0000D0190910E01E02EE7017E01F22EE70156
:100FE0001EC0CB0175DD888360910B0170910C01EF
:100FF00080910D0190910E016F5F7F4F8F4F9F4F3A
:1010000060930B0170930C0180930D0190930E017E
:101010002196AE01401B411738F430910A0132305D
:1010200001F766DC8883E0CF183018F610920A01C9
:10103000812FDF91CF911F910F91FF90EF90089535
:1010400080910B0190910C01602F722F412FC9D913
:1010500080910B0190910C01A0910D01B0910E01B6
:10106000810F911DA11DB11D80930B0190930C0167
:10107000A0930D01B0930E019CCFEF92FF920F93BE
:101080001F93CF93DF93082F292F162F30910A013A
:10109000313079F0343069F0363009F48EC0FF24F5
:1010A000FA948F2DDF91CF911F910F91FF90EF90C8
:1010B0000895112309F4AEC060910B0170910C01E9
:1010C00080910D0190910E01E02EE7017E01F22E3C
:1010D000E701FF244EC0209111013091120121152A
:1010E000310509F050C0488121E038DC80910F01C2
:1010F0009091100101979093100180930F01009738
:10110000E1F410920A018091140181FF39C020910D
:10111000130130E0809111019091120128173907D5
:1011200079F160910B0170910C0180910D0190910A
:101130000E01488175DCFF24F39460910B017091DE
:101140000C0180910D0190910E016F5F7F4F8F4FC9
:101150009F4F60930B0170930C0180930D0190934E
:101160000E012196AE01401B411708F09ACF309135
:101170000A01313009F4AFCFCB016881CFDCB6CFA3
:10118000FF24F394DACF488120E0E8DB809113015B
:10119000815080931301882309F0A8CF60910B013F
:1011A00070910C0180910D0190910E01488138DC05
:1011B000809111018093130199CF80910B0190913F
:1011C0000C01602F722F412F16D980910B01909145
:1011D0000C01A0910D01B0910E01810F911DA11D77
:1011E000B11D80930B0190930C01A0930D01B0935E
:1011F0000E0180910F0190911001811B9109909334
:10120000100180930F01009729F410920A01FF2426
:10121000F39447CFFF2445CF409A0895409808950E
:1012200014B815B81BB883E08AB987B997E098B9A4
:1012300085BDF8942DDA209A419880E49BDC419A90
:0E12400020987894EBD8EAD8FDCFF894FFCF31
:08124E005AFF0C0A0806040215
:00000001FF
