:100000003BC06FC054C053C052C051C050C04FC05D
:100010004EC04DC04CC04BC04AC049C048C047C08C
:1000200046C045C044C0040309041C0377007700A0
:1000300077002E00660069007300630068006C00A2
:100040002E00640065000E0355005300420061005D
:100050007300700012011001FF000008C016DC05DB
:1000600006010102000109021200010100801909C4
:10007000040000000000000011241FBECFE5D4E002
:10008000DEBFCDBF10E0A0E6B0E0EEE3F2E102C0DB
:1000900005900D92A836B107D9F710E0A8E6B0E0B8
:1000A00001C01D92A23BB107E1F7B2D8C6C8A8CFE4
:1000B000A82FB92F80E090E041E050EA609530E051
:1000C00009C02D9182279795879510F08427952751
:1000D000305EC8F36F5FA8F30895EADF8D939D93B8
:1000E0000895CF93CFB7CF93C395B09BE9F7B09B5B
:1000F00009C0B09B07C0B09B05C0B09B03C0B09BBC
:1001000001C0A1C0DF93C0918C00DD27CD56DF4F29
:10011000B09B02C0DF91EBCF2F930F931F9306B3D9
:100120002FEF00FB20F94F933F9316B34FEF0127BA
:1001300000FB21F93BE031C04E7F012F16B3216057
:1001400028C0102F4D7F2260000006B329C04B7FCE
:100150002460012F000016B32BC016B3477F286020
:100160002AC04F7E06B320612CC04F7D16B320629B
:100170002FC04F7B06B3206432C0422706B3499399
:100180004FEF0000102710FB20F916B31370C9F1D0
:10019000297F91F2012700FB21F906B3237F89F221
:1001A000315058F1102710FB22F916B3277E79F24F
:1001B000012700FB23F92F7C81F206B3102710FBE7
:1001C00024F92F7971F200C016B3012700FB25F93D
:1001D0002F7359F200C006B3102710FB26F9223006
:1001E00040F200C016B3012700FB27F9243028F69F
:1001F0004F77206816B30000F9CF10E41ABF00272C
:1002000017C03B503195C31BD04010E41ABF088182
:10021000033CE9F00B34D9F020918A001981110FC9
:100220001213EDCF093641F10D3211F0013E39F7CD
:10023000009391003F914F911F910F912F91DF916A
:10024000CAB7C6FD51CFCF91CFBFCF91189520919E
:100250009100222379F310918F00112311F534308E
:1002600012F130938F0020938B0010918C003BE0B3
:10027000311B30938C0017C000918F0001308CF43B
:100280000AE53091600034FD10C000936000CFE7B4
:10029000D0E00FC02795A8F45150A9F4220F000018
:1002A000F9CF4AE503C042ED01C0432FC4E1D0E0DD
:1002B00032E017B31360C09A17BB08B320E413E011
:1002C0005F93012756E008BB279520F4515021F495
:1002D000220FF9CF012756E000003B5A08BBD0F2AD
:1002E000279528F4515029F4220F0000F9CF012757
:1002F00056E0279508BB20F4515021F4220FF9CF86
:10030000012756E02991332308BB21F60C7F109179
:100310009000110FC651D04008BB11F010938A0015
:1003200010E41ABF016017B31C7F402F4C7F5F9110
:1003300000C000C008BB17BB48BB7CCFBD9ABB98B0
:10034000C39A50E217D05A95E9F70895AC0188E6B0
:1003500005D0842F03D089E601D0852F0FD028E067
:1003600030E0382780FB869506D02A95D1F730FB00
:1003700002D000D06894BB98C39A16F0C398BB9A79
:10038000E091B000F091B1003197F0F7C59AE6B373
:10039000E3FBE091B000F091B1003197F0F7C59820
:1003A000089520ECE7DF46F42A95E1F780E02AE1A2
:1003B000E5DF2A95E9F7DECF28E030E0DBDF869540
:1003C00087F938272A95D1F7D5DF27F9322772F335
:1003D000D1DFD0CFDB01742FB9DF84E2BFDFE1DFF3
:1003E0008D937A95D1F70895DB01742FAFDF83EFFA
:1003F000B5DF8DE1B3DF84E6B1DF8D91AFDF82E75A
:10040000ADDFCFDF8078D9F77A9589F708951F930C
:10041000CF93DF9360918F00635067FD13C080918D
:100420008C00CCE0D0E0C81BD109CD56DF4F8091C5
:100430008B008D3209F46EC08091680087FD91C0F9
:1004400010928F008091600084FF46C0609161002F
:100450006F3F09F441C0693050F16850609361000A
:1004600080917F0098E8892780937F0068E08091E1
:10047000680087FD94C020918D0030918E0086FF2A
:100480007AC0F901862FA0E8B0E094919D9331964F
:100490008150D9F72F5F3F4F862F8150280F311D94
:1004A00030938E0020938D00162F1C5F0BC010928E
:1004B000610080917F0098E8892780937F00662300
:1004C000B1F614E080E890E008DE1C3019F08FEF00
:1004D000809361001093600094E186B3837099F477
:1004E0009150D9F71092900010928A0011E08091FB
:1004F0006900811721F0112359F010936900DF91F1
:10050000CF911F91089511E0992389F310E0EFCF67
:100510007BD6F3CF683009F093CF83EC80937F00D4
:100520008AE580936000109268008881807661F58A
:100530009A811092880089818823E9F510928900B8
:1005400028E830E082E030938E0020938D009F8178
:10055000992321F49E81981708F4892F80936100D4
:100560006FCFCE0182D58F3FA1F1882309F468CFE8
:100570001092610065CFD901862FE0E8F0E09D91EF
:1005800091938150E1F786CFCE011AD38F3FF9F6D0
:10059000988197FD22C090E890936800DFCF80E8B3
:1005A00090E0ECD4682F893008F454C08FEF80932A
:1005B00061001EE18FCF853041F1863081F08830B7
:1005C00059F1893069F18A3089F128E830E080E01A
:1005D000BACF8EE18093600033CF8E81DCCF8B81E8
:1005E000813081F1823031F1833029F080E090E474
:1005F00090936800ACCF992381F586E290E09093C8
:100600008E0080938D0084E0F2CF90939000FED511
:1006100028E830E080E097CF22E930E081E093CF16
:100620009093920028E830E080E08DCF28E830E019
:1006300081E089CF86E690E090938E0080938D00D4
:1006400082E1D5CF84E590E090938E0080938D0079
:1006500082E1CDCF182F1C5F35CF913051F0923011
:1006600029F686E490E090938E0080938D008EE0D2
:10067000BECF8AE290E090938E0080938D008CE153
:10068000B6CF85B7826085BF8BB780648BBF089576
:10069000582FC59848E080E02091AE0057FD15C066
:1006A000C39832B792B7931B9217E0F3C59A880F9D
:1006B000B4998F5F32B792B7931B9217E0F3C59846
:1006C000415029F0550F57FFEBCFC39AEACF089559
:1006D0008FB9779BFECF8FB1089521E196958795CD
:1006E000779567952A95D1F72091AD002617D9F017
:1006F0006093AD00E091AA00F091AB008DE4099504
:10070000E091AA00F091AB0080E00995E091AA0089
:10071000F091AB008091AD000995E091AA00F091B5
:10072000AB0080E009950895882361F18830C8F016
:1007300028E633E03093AB002093AA001092A90082
:1007400091E09093AE008930C9F18A30E0F08B30AF
:1007500021F08C30D1F49093A90081E58093AC0016
:10076000089528E433E03093AB002093AA0084304E
:1007700089F1853088F4823049F18330B9F080EC1A
:100780008093AE0008958830A9F082E58093AC0094
:1007900081E08093A9000895863049F0863090F07A
:1007A000873069F783E08093AE00089580E38093FB
:1007B000AE00089583E58093AC00089582E58093B0
:1007C000AC0008958CE08093AE00089580E680939D
:1007D000AE00089588E18093AE00089587B38C62DF
:1007E00087BBC298C5988AE5BDD18FEF8093AD00D5
:1007F0000895F89487B3837D87BB88B3837D88BBD6
:1008000078941DB80895F89487B3877D87BB88B323
:10081000837D88BB78941DB8C29A81E0A3D1C29829
:100820008AE5A0D1F89487B3886287BB789408954D
:100830000F931F93E091AA00F091AB0083E0E8369C
:10084000F80709F446C010E28CEA0995E091AA0085
:10085000F091AB0083E50995E091AA00F091AB001F
:1008600080E00995082FE091AA00F091AB0080E0AC
:100870000995033551F11DB822B79091AE0082B7AA
:10088000821B8917E0F3C59A22B782B7821B8917AA
:10089000E0F3C59822B782B7821B8917E0F3E09195
:1008A000AA00F091AB0083E0E836F80739F0115068
:1008B00059F61DB881E01F910F9108958091AC0009
:1008C0008DB98091A9008EB9F2CF80E01F910F9170
:1008D00008958091AC008DB98091A9008EB9B3CFF5
:1008E000EF92FF920F931F937B018C01F6DE8E2D0A
:1008F0008170880F880F880FE091AA00F091AB00FB
:1009000080620995D801C70149E0B695A7959795EA
:1009100087954A95D1F7E091AA00F091AB0009952F
:10092000D801C701B695A79597958795E091AA003C
:10093000F091AB000995E091AA00F091AB0080E046
:1009400009951F910F91FF90EF900895CF92DF923C
:10095000EF92FF920F931F93DF93CF930F92CDB738
:10096000DEB77B018C01D42E2983B7DE8E2D8170FA
:10097000880F880F880FE091AA00F091AB00806487
:100980000995D801C701F9E0B695A7959795879580
:10099000FA95D1F7E091AA00F091AB000995C80152
:1009A000B7019695879577956795E091AA00F091A4
:1009B000AB00862F0995E091AA00F091AB008D2D38
:1009C000099529812223A9F08D2D8F37E9F0C2B630
:1009D0005EE1D52EC801B70183DF8F3751F482B7AE
:1009E0008C198D3310F0C2B6DA94DD2099F781E0CE
:1009F00001C080E00F90CF91DF911F910F91FF9088
:100A0000EF90DF90CF9008958FE0ACD080E0F2CFF0
:100A1000CF92DF92EF92FF920F931F93DF93CF93CA
:100A20000F92CDB7DEB77B018C01498356DEE09192
:100A3000AA00F091AB008CE40995D801C70139E018
:100A4000B695A795979587953A95D1F7E091AA0025
:100A5000F091AB000995D801C701B695A795979578
:100A60008795E091AA00F091AB000995E091AA006A
:100A7000F091AB0080E0099549814F3FE9F0C2B6A3
:100A8000AEE1DA2EC801B7012BDF8F3F99F482B7B0
:100A90008C198D3310F0C2B6DA94DD2099F781E01D
:100AA0000F90CF91DF911F910F91FF90EF90DF900A
:100AB000CF90089580E0F4CF8FE054D080E0F0CF65
:100AC0001F93DF93CF930F92CDB7DEB7182FE0912E
:100AD000AA00F091AB0080EA99830995E091AA0001
:100AE000F091AB009981892F0995E091AA00F091CE
:100AF000AB00812F0995E091AA00F091AB0080E056
:100B000009950F90CF91DF911F9108951F93DF9367
:100B1000CF9300D0CDB7DEB7182FE091AA00F091A7
:100B2000AB0080EC6A8399830995E091AA00F0916B
:100B3000AB009981892F0995E091AA00F091AB0053
:100B4000812F0995E091AA00F091AB006A81862F70
:100B500009958EE107D080E00F900F90CF91DF9143
:100B60001F910895882349F030E022B792B7921B75
:100B70009C33E0F33F5F3817C0F308950F931F9342
:100B8000CF93DF93082FC2E6D0E004C080E0C836E0
:100B9000D80771F01991812FC7DD35DE49DE882332
:100BA000A9F731DE45DE882389F72DDE012F02C04B
:100BB000802FBADD802FDF91CF911F910F91089583
:100BC000CF93DF93EC0189818130A9F1823009F460
:100BD000C1C0833009F452C0843009F496C0873014
:100BE00009F46EC0853009F424C1863009F4E3C0ED
:100BF000883009F4B5C0893009F428C18A3009F475
:100C000036C1843109F41AC18B3009F484C18C30A7
:100C100009F496C18D3009F4A8C18E3009F4AAC137
:100C20008F3009F42BC1803109F449C18F3709F4A1
:100C300067C180E016C09A9B1DC08091750074DD6D
:100C400010927600A998CADD80917500882321F45E
:100C500084E094DF80937500109277008093780091
:100C600082E027E730E030938E0020938D00DF9103
:100C7000CF91089584E080937500E1CFE091AA00C0
:100C8000F091AB008A81099580937700E091AA00EA
:100C9000F091AB008B81099580937800E091AA00D8
:100CA000F091AB008C81099580937900E091AA00C6
:100CB000F091AB008D81099580937A0084E0D1CFCB
:100CC00080917600882391F43B8120E08A8190E036
:100CD000822B932BAA2797FDA095BA2F80936B00A8
:100CE00090936C00A0936D00B0936E003F8120E064
:100CF0008E8190E0822B932B9093700080936F00F5
:100D000083E080936A008FEFACCF809176008823D8
:100D100091F43B8120E08A8190E0822B932BAA27DB
:100D200097FDA095BA2F80936B0090936C00A093D1
:100D30006D00B0936E003F8120E08E8190E0822BA9
:100D4000932B9093700080936F0082E080936A00F1
:100D50008FEF87CF4EDDA99A1092750080E081CF8A
:100D600080917600882391F43B8120E08A8190E095
:100D7000822B932BAA2797FDA095BA2F80936B0007
:100D800090936C00A0936D00B0936E00109272006F
:100D900010927100109274003F8120E08E8190E0EB
:100DA000822B932B9093700080936F0084E080934C
:100DB0006A008FEF56CF80917600882391F43B81B3
:100DC00020E08A8190E0822B932BAA2797FDA095A3
:100DD000BA2F80936B0090936C00A0936D00B0933A
:100DE0006E003C818D81282F2F702093740090E03D
:100DF000807F907082959295907F9827807F98272A
:100E0000830F911D909372008093710020FF02C0A8
:100E1000809373003F8120E08E8190E0822B932BA2
:100E20009093700080936F0081E080936A008FEF51
:100E300018CFFEDC8093770081E013CF109277000B
:100E4000809175008093780082E00BCF81E08093E1
:100E500076008A819B81AC81BD8180936B009093E9
:100E60006C00A0936D00B0936E0080E0FACE8A8192
:100E7000809375001092770081E0F3CE3B8120E0F3
:100E80008A8190E0822B932BAA2797FDA095BA2FF9
:100E900080936B0090936C00A0936D00B0936E00F4
:100EA0003F8120E08E8190E0822B932B9093700005
:100EB00080936F0085E080936A008FEFD2CE3B81F4
:100EC00020E08A8190E0822B932BAA2797FDA095A2
:100ED000BA2F80936B0090936C00A0936D00B09339
:100EE0006E003F8120E08E8190E0822B932B9093C7
:100EF000700080936F0086E080936A008FEFB1CE20
:100F000081E080937700109278001092790010921F
:100F10007A0084E0A6CE3B8120E08A8190E0822B9B
:100F2000932B9093B1008093B000C29ABA9A83E059
:100F300019DEC298A99880E115DE00DA80E091CE32
:100F400080EC0CDA80E00ADA8AE00CDEC29A85E0F6
:100F500009DEC29885E006DE87B3837D87BB88B350
:100F6000837D88BBA99A80E07CCE1BDA80937700D2
:100F700081E077CE8A81F2D980E073CEEF92FF9242
:100F80000F931F93CF93DF93082F292F162F3091A4
:100F90006A00832F8250823060F0353009F448C0F7
:100FA0001FEF812FDF91CF911F910F91FF90EF9055
:100FB0000895662399F160916B0070916C008091A7
:100FC0006D0090916E00E02EE7017E01F22EE701A8
:100FD0001EC0CB0175DD888360916B0070916C0041
:100FE00080916D0090916E006F5F7F4F8F4F9F4F8C
:100FF00060936B0070936C0080936D0090936E0013
:101000002196AE01401B411738F430916A0032300E
:1010100001F766DC8883E0CF183018F610926A007A
:10102000812FDF91CF911F910F91FF90EF90089545
:1010300080916B0090916C00602F722F412FCAD964
:1010400080916B0090916C00A0916D00B0916E004A
:10105000810F911DA11DB11D80936B0090936C00B9
:10106000A0936D00B0936E009CCFEF92FF920F9310
:101070001F93CF93DF93082F292F162F30916A00EB
:10108000313079F0343069F0363009F48EC0FF2405
:10109000FA948F2DDF91CF911F910F91FF90EF90D8
:1010A0000895112309F4AEC060916B0070916C003B
:1010B00080916D0090916E00E02EE7017E01F22E8E
:1010C000E701FF244EC0209171003091720021157C
:1010D000310509F050C0488121E038DC80916F0073
:1010E0009091700001979093700080936F0000972B
:1010F000E1F410926A008091740081FF39C0209160
:10110000730030E0809171009091720028173907C8
:1011100079F160916B0070916C0080916D009091FD
:101120006E00488175DCFF24F39460916B00709130
:101130006C0080916D0090916E006F5F7F4F8F4FBC
:101140009F4F60936B0070936C0080936D00909341
:101150006E002196AE01401B411708F09ACF3091E6
:101160006A00313009F4AFCFCB016881CFDCB6CF54
:10117000FF24F394DACF488120E0E8DB809173000C
:10118000815080937300882309F0A8CF60916B0091
:1011900070916C0080916D0090916E00488138DCF8
:1011A000809171008093730099CF80916B00909132
:1011B0006C00602F722F412F17D980916B00909196
:1011C0006C00A0916D00B0916E00810F911DA11D6A
:1011D000B11D80936B0090936C00A0936D00B09351
:1011E0006E0080916F0090917000811B9109909327
:1011F000700080936F00009729F410926A00FF241A
:10120000F39447CFFF2445CFA89A0895A89808954E
:1012100017BA18BA12BA83E081BB84BB97E095BBBA
:1012200083BFF8942EDAB89AA99880E49BDCA99A37
:0E123000B8987894ECD8EBD8FDCFF894FFCFA7
:08123E005AFF0C0A0806040225
:00000001FF
